{
  "contractName": "Bridge",
  "abi": [
    {
      "constant": true,
      "inputs": [],
      "name": "getNextParties",
      "outputs": [
        {
          "name": "",
          "type": "uint16"
        }
      ],
      "payable": false,
      "stateMutability": "view",
      "type": "function"
    },
    {
      "constant": true,
      "inputs": [],
      "name": "getY",
      "outputs": [
        {
          "name": "",
          "type": "uint256"
        }
      ],
      "payable": false,
      "stateMutability": "view",
      "type": "function"
    },
    {
      "constant": true,
      "inputs": [
        {
          "name": "message",
          "type": "bytes"
        },
        {
          "name": "signatures",
          "type": "bytes"
        }
      ],
      "name": "checkSignedMessage",
      "outputs": [
        {
          "name": "",
          "type": "bytes32"
        },
        {
          "name": "",
          "type": "uint16"
        }
      ],
      "payable": false,
      "stateMutability": "view",
      "type": "function"
    },
    {
      "constant": false,
      "inputs": [
        {
          "name": "message",
          "type": "bytes"
        },
        {
          "name": "signatures",
          "type": "bytes"
        }
      ],
      "name": "applyMessage",
      "outputs": [],
      "payable": false,
      "stateMutability": "nonpayable",
      "type": "function"
    },
    {
      "constant": true,
      "inputs": [
        {
          "name": "a",
          "type": "address"
        }
      ],
      "name": "getNextPartyId",
      "outputs": [
        {
          "name": "",
          "type": "uint16"
        }
      ],
      "payable": false,
      "stateMutability": "view",
      "type": "function"
    },
    {
      "constant": true,
      "inputs": [],
      "name": "status",
      "outputs": [
        {
          "name": "",
          "type": "uint8"
        }
      ],
      "payable": false,
      "stateMutability": "view",
      "type": "function"
    },
    {
      "constant": true,
      "inputs": [
        {
          "name": "_epoch",
          "type": "uint16"
        }
      ],
      "name": "getThreshold",
      "outputs": [
        {
          "name": "",
          "type": "uint16"
        }
      ],
      "payable": false,
      "stateMutability": "view",
      "type": "function"
    },
    {
      "constant": true,
      "inputs": [],
      "name": "getRangeSize",
      "outputs": [
        {
          "name": "",
          "type": "uint16"
        }
      ],
      "payable": false,
      "stateMutability": "view",
      "type": "function"
    },
    {
      "constant": true,
      "inputs": [],
      "name": "getCloseEpoch",
      "outputs": [
        {
          "name": "",
          "type": "bool"
        }
      ],
      "payable": false,
      "stateMutability": "view",
      "type": "function"
    },
    {
      "constant": true,
      "inputs": [],
      "name": "getPartyId",
      "outputs": [
        {
          "name": "",
          "type": "uint16"
        }
      ],
      "payable": false,
      "stateMutability": "view",
      "type": "function"
    },
    {
      "constant": true,
      "inputs": [
        {
          "name": "_epoch",
          "type": "uint16"
        }
      ],
      "name": "getParties",
      "outputs": [
        {
          "name": "",
          "type": "uint16"
        }
      ],
      "payable": false,
      "stateMutability": "view",
      "type": "function"
    },
    {
      "constant": true,
      "inputs": [],
      "name": "getNextValidators",
      "outputs": [
        {
          "name": "",
          "type": "address[]"
        }
      ],
      "payable": false,
      "stateMutability": "view",
      "type": "function"
    },
    {
      "constant": true,
      "inputs": [
        {
          "name": "_epoch",
          "type": "uint16"
        }
      ],
      "name": "getRangeSize",
      "outputs": [
        {
          "name": "",
          "type": "uint16"
        }
      ],
      "payable": false,
      "stateMutability": "view",
      "type": "function"
    },
    {
      "constant": true,
      "inputs": [],
      "name": "getX",
      "outputs": [
        {
          "name": "",
          "type": "uint256"
        }
      ],
      "payable": false,
      "stateMutability": "view",
      "type": "function"
    },
    {
      "constant": true,
      "inputs": [
        {
          "name": "_epoch",
          "type": "uint16"
        }
      ],
      "name": "getCloseEpoch",
      "outputs": [
        {
          "name": "",
          "type": "bool"
        }
      ],
      "payable": false,
      "stateMutability": "view",
      "type": "function"
    },
    {
      "constant": true,
      "inputs": [],
      "name": "tokenContract",
      "outputs": [
        {
          "name": "",
          "type": "address"
        }
      ],
      "payable": false,
      "stateMutability": "view",
      "type": "function"
    },
    {
      "constant": true,
      "inputs": [
        {
          "name": "_epoch",
          "type": "uint16"
        }
      ],
      "name": "getY",
      "outputs": [
        {
          "name": "",
          "type": "uint256"
        }
      ],
      "payable": false,
      "stateMutability": "view",
      "type": "function"
    },
    {
      "constant": true,
      "inputs": [
        {
          "name": "_epoch",
          "type": "uint16"
        }
      ],
      "name": "getX",
      "outputs": [
        {
          "name": "",
          "type": "uint256"
        }
      ],
      "payable": false,
      "stateMutability": "view",
      "type": "function"
    },
    {
      "constant": true,
      "inputs": [
        {
          "name": "_epoch",
          "type": "uint16"
        }
      ],
      "name": "getStartBlock",
      "outputs": [
        {
          "name": "",
          "type": "uint32"
        }
      ],
      "payable": false,
      "stateMutability": "view",
      "type": "function"
    },
    {
      "constant": true,
      "inputs": [
        {
          "name": "",
          "type": "uint16"
        }
      ],
      "name": "states",
      "outputs": [
        {
          "name": "startBlock",
          "type": "uint32"
        },
        {
          "name": "endBlock",
          "type": "uint32"
        },
        {
          "name": "nonce",
          "type": "uint32"
        },
        {
          "name": "threshold",
          "type": "uint16"
        },
        {
          "name": "rangeSize",
          "type": "uint16"
        },
        {
          "name": "closeEpoch",
          "type": "bool"
        },
        {
          "name": "x",
          "type": "uint256"
        },
        {
          "name": "y",
          "type": "uint256"
        }
      ],
      "payable": false,
      "stateMutability": "view",
      "type": "function"
    },
    {
      "constant": true,
      "inputs": [],
      "name": "getNextThreshold",
      "outputs": [
        {
          "name": "",
          "type": "uint16"
        }
      ],
      "payable": false,
      "stateMutability": "view",
      "type": "function"
    },
    {
      "constant": true,
      "inputs": [],
      "name": "epoch",
      "outputs": [
        {
          "name": "",
          "type": "uint16"
        }
      ],
      "payable": false,
      "stateMutability": "view",
      "type": "function"
    },
    {
      "constant": true,
      "inputs": [
        {
          "name": "",
          "type": "bytes32"
        }
      ],
      "name": "handledMessages",
      "outputs": [
        {
          "name": "",
          "type": "bool"
        }
      ],
      "payable": false,
      "stateMutability": "view",
      "type": "function"
    },
    {
      "constant": true,
      "inputs": [],
      "name": "getStartBlock",
      "outputs": [
        {
          "name": "",
          "type": "uint32"
        }
      ],
      "payable": false,
      "stateMutability": "view",
      "type": "function"
    },
    {
      "constant": true,
      "inputs": [],
      "name": "getParties",
      "outputs": [
        {
          "name": "",
          "type": "uint16"
        }
      ],
      "payable": false,
      "stateMutability": "view",
      "type": "function"
    },
    {
      "constant": true,
      "inputs": [],
      "name": "nextEpoch",
      "outputs": [
        {
          "name": "",
          "type": "uint16"
        }
      ],
      "payable": false,
      "stateMutability": "view",
      "type": "function"
    },
    {
      "constant": true,
      "inputs": [],
      "name": "getValidators",
      "outputs": [
        {
          "name": "",
          "type": "address[]"
        }
      ],
      "payable": false,
      "stateMutability": "view",
      "type": "function"
    },
    {
      "constant": true,
      "inputs": [],
      "name": "getNextRangeSize",
      "outputs": [
        {
          "name": "",
          "type": "uint16"
        }
      ],
      "payable": false,
      "stateMutability": "view",
      "type": "function"
    },
    {
      "constant": true,
      "inputs": [
        {
          "name": "_epoch",
          "type": "uint16"
        }
      ],
      "name": "getNonce",
      "outputs": [
        {
          "name": "",
          "type": "uint32"
        }
      ],
      "payable": false,
      "stateMutability": "view",
      "type": "function"
    },
    {
      "constant": true,
      "inputs": [],
      "name": "getNonce",
      "outputs": [
        {
          "name": "",
          "type": "uint32"
        }
      ],
      "payable": false,
      "stateMutability": "view",
      "type": "function"
    },
    {
      "constant": true,
      "inputs": [],
      "name": "getNextCloseEpoch",
      "outputs": [
        {
          "name": "",
          "type": "bool"
        }
      ],
      "payable": false,
      "stateMutability": "view",
      "type": "function"
    },
    {
      "constant": true,
      "inputs": [],
      "name": "getThreshold",
      "outputs": [
        {
          "name": "",
          "type": "uint16"
        }
      ],
      "payable": false,
      "stateMutability": "view",
      "type": "function"
    },
    {
      "constant": true,
      "inputs": [
        {
          "name": "_epoch",
          "type": "uint16"
        }
      ],
      "name": "getValidators",
      "outputs": [
        {
          "name": "",
          "type": "address[]"
        }
      ],
      "payable": false,
      "stateMutability": "view",
      "type": "function"
    },
    {
      "inputs": [
        {
          "name": "threshold",
          "type": "uint16"
        },
        {
          "name": "validators",
          "type": "address[]"
        },
        {
          "name": "_tokenContract",
          "type": "address"
        },
        {
          "name": "limits",
          "type": "uint96[2]"
        },
        {
          "name": "rangeSize",
          "type": "uint16"
        },
        {
          "name": "closeEpoch",
          "type": "bool"
        }
      ],
      "payable": false,
      "stateMutability": "nonpayable",
      "type": "constructor"
    },
    {
      "anonymous": false,
      "inputs": [
        {
          "indexed": false,
          "name": "value",
          "type": "uint96"
        },
        {
          "indexed": false,
          "name": "nonce",
          "type": "uint32"
        }
      ],
      "name": "ExchangeRequest",
      "type": "event"
    },
    {
      "anonymous": false,
      "inputs": [
        {
          "indexed": true,
          "name": "epoch",
          "type": "uint16"
        }
      ],
      "name": "EpochEnd",
      "type": "event"
    },
    {
      "anonymous": false,
      "inputs": [
        {
          "indexed": true,
          "name": "epoch",
          "type": "uint16"
        }
      ],
      "name": "EpochClose",
      "type": "event"
    },
    {
      "anonymous": false,
      "inputs": [],
      "name": "ForceSign",
      "type": "event"
    },
    {
      "anonymous": false,
      "inputs": [
        {
          "indexed": true,
          "name": "oldEpoch",
          "type": "uint16"
        },
        {
          "indexed": true,
          "name": "newEpoch",
          "type": "uint16"
        }
      ],
      "name": "NewEpoch",
      "type": "event"
    },
    {
      "anonymous": false,
      "inputs": [
        {
          "indexed": true,
          "name": "epoch",
          "type": "uint16"
        }
      ],
      "name": "NewEpochCancelled",
      "type": "event"
    },
    {
      "anonymous": false,
      "inputs": [
        {
          "indexed": true,
          "name": "oldEpoch",
          "type": "uint16"
        },
        {
          "indexed": true,
          "name": "newEpoch",
          "type": "uint16"
        }
      ],
      "name": "NewFundsTransfer",
      "type": "event"
    },
    {
      "anonymous": false,
      "inputs": [
        {
          "indexed": true,
          "name": "epoch",
          "type": "uint16"
        },
        {
          "indexed": false,
          "name": "x",
          "type": "uint256"
        },
        {
          "indexed": false,
          "name": "y",
          "type": "uint256"
        }
      ],
      "name": "EpochStart",
      "type": "event"
    },
    {
      "constant": false,
      "inputs": [
        {
          "name": "value",
          "type": "uint96"
        }
      ],
      "name": "exchange",
      "outputs": [],
      "payable": false,
      "stateMutability": "nonpayable",
      "type": "function"
    }
  ],
  "bytecode": "0x60806040523480156200001157600080fd5b5060405162002e7538038062002e75833981810160405260e08110156200003757600080fd5b8151602083018051919392830192916401000000008111156200005957600080fd5b820160208101848111156200006d57600080fd5b81518560208202830111640100000000821117156200008b57600080fd5b50506020820151608083015160a0840151835193965091945060409093019291620000b557600080fd5b84518661ffff161115620000c857600080fd5b600280546001600160a01b0319166001600160a01b03861617905560018054600362ffffff199091161764ffff000000191663010000009081179182905560408051610120810182528881526000602080830182905263ffffffff838501819052606084015261ffff8c8116608085015288811660a085015287151560c085015260e084018390526101008401839052949095049093168352828452912081518051929391926200017d9284920190620002f7565b5060208281015160018381018054604080880151606089015160808a015160a08b015160c08c015163ffffffff1990961663ffffffff998a161763ffffffff60201b1916640100000000948a16949094029390931763ffffffff60401b19166801000000000000000098909216979097021761ffff60601b19166c0100000000000000000000000061ffff978816021761ffff60701b19166e01000000000000000000000000000096909116959095029490941760ff60801b19167001000000000000000000000000000000009115159190910217905560e085015160028501556101009094015160039093019290925585518354918701516001600160601b03908116710100000000000000000000000000000000000291166501000000000002600160281b600160881b031990921691909117600160881b600160e81b031916178255516000907ffb8e00e9d7c99f4d3070324ad79f8db723e140c6cea87362c8f92500d59d9f14908290a35050505050506200038b565b8280548282559060005260206000209081019282156200034f579160200282015b828111156200034f57825182546001600160a01b0319166001600160a01b0390911617825560209092019160019091019062000318565b506200035d92915062000361565b5090565b6200038891905b808211156200035d5780546001600160a01b031916815560010162000368565b90565b612ada806200039b6000396000f3fe608060405234801561001057600080fd5b50600436106101965760003560e01c8063073ce82d1461019b5780630b7f1665146101ba5780630c59d2bb146101d4578063120646e914610319578063197d6ca414610444578063200d2ed21461046a5780632310dd3c1461049657806327dd88d7146104b75780632a4b93af146104dd5780632dfaccc5146104e55780632fb0fc6f1461050157806333a4455a1461050957806340cddab31461052a57806346295bcf146105825780635197c7aa146105a35780635405d2ba146105ab57806355a373d6146105cc5780635f393b16146105f0578063686818191461061157806371abf071146106325780637bd13f541461066c5780638199d3fd146106e1578063900cf0cf146106e957806399b56ff8146106f1578063a5f18c011461070e578063a8311aa814610716578063aea0e78b1461071e578063b7ab4db514610726578063c2668caf1461072e578063caf0b74b14610736578063d087d28814610757578063d921f5301461075f578063e75235b814610767578063eda0e92a1461076f575b600080fd5b6101a3610790565b6040805161ffff9092168252519081900360200190f35b6101c26107b0565b60408051918252519081900360200190f35b6102fd600480360360408110156101ea57600080fd5b810190602081018135600160201b81111561020457600080fd5b82018360208201111561021657600080fd5b803590602001918460018302840111600160201b8311171561023757600080fd5b91908080601f0160208091040260200160405190810160405280939291908181526020018383808284376000920191909152509295949360208101935035915050600160201b81111561028957600080fd5b82018360208201111561029b57600080fd5b803590602001918460018302840111600160201b831117156102bc57600080fd5b91908080601f0160208091040260200160405190810160405280939291908181526020018383808284376000920191909152509295506107c8945050505050565b6040805192835261ffff90911660208301528051918290030190f35b6104426004803603604081101561032f57600080fd5b810190602081018135600160201b81111561034957600080fd5b82018360208201111561035b57600080fd5b803590602001918460018302840111600160201b8311171561037c57600080fd5b91908080601f0160208091040260200160405190810160405280939291908181526020018383808284376000920191909152509295949360208101935035915050600160201b8111156103ce57600080fd5b8201836020820111156103e057600080fd5b803590602001918460018302840111600160201b8311171561040157600080fd5b91908080601f016020809104026020016040519081016040528093929190818152602001838380828437600092019190915250929550610c7b945050505050565b005b6101a36004803603602081101561045a57600080fd5b50356001600160a01b0316611349565b6104726113ba565b6040518082600481111561048257fe5b60ff16815260200191505060405180910390f35b6101a3600480360360208110156104ac57600080fd5b503561ffff166113c3565b610442600480360360208110156104cd57600080fd5b50356001600160601b03166113e6565b6101a36116bc565b6104ed6116d4565b604080519115158252519081900360200190f35b6101a36116ec565b6101a36004803603602081101561051f57600080fd5b503561ffff1661175a565b610532611770565b60408051602080825283518183015283519192839290830191858101910280838360005b8381101561056e578181015183820152602001610556565b505050509050019250505060405180910390f35b6101a36004803603602081101561059857600080fd5b503561ffff1661178a565b6101c26117ad565b6104ed600480360360208110156105c157600080fd5b503561ffff166117c5565b6105d46117e8565b604080516001600160a01b039092168252519081900360200190f35b6101c26004803603602081101561060657600080fd5b503561ffff166117f7565b6101c26004803603602081101561062757600080fd5b503561ffff16611810565b6106536004803603602081101561064857600080fd5b503561ffff16611829565b6040805163ffffffff9092168252519081900360200190f35b61068d6004803603602081101561068257600080fd5b503561ffff16611848565b6040805163ffffffff998a1681529789166020890152959097168686015261ffff938416606087015291909216608085015290151560a084015260c083015260e08201929092529051908190036101000190f35b6101a36118ac565b6101a36118c6565b6104ed6004803603602081101561070757600080fd5b50356118d5565b6106536118ea565b6101a3611902565b6101a361191a565b61053261192b565b6101a3611943565b6106536004803603602081101561074c57600080fd5b503561ffff1661195d565b610653611983565b6104ed61199b565b6101a36119b5565b6105326004803603602081101561078557600080fd5b503561ffff166119cd565b6001546000906107aa906301000000900461ffff1661175a565b90505b90565b6001546000906107aa90610100900461ffff166117f7565b60008060418351816107d657fe5b0615610827576040805162461bcd60e51b815260206004820152601b60248201527a092dcc6dee4e4cac6e840e6d2cedcc2e8eae4cae640d8cadccee8d602b1b604482015290519081900360640190fd5b60008451600314156108ce578460405160200180807a19457468657265756d205369676e6564204d6573736167653a0a3360281b815250601b0182805190602001908083835b6020831061088c5780518252601f19909201916020918201910161086d565b6001836020036101000a0380198251168184511680821785525050505050509050019150506040516020818303038152906040528051906020012090506109cf565b845160201415610931578460405160200180807b0ca2ba3432b932bab69029b4b3b732b21026b2b9b9b0b3b29d05199960211b815250601c0182805190602001908083836020831061088c5780518252601f19909201916020918201910161086d565b845160431415610994578460405160200180807b19457468657265756d205369676e6564204d6573736167653a0a363760201b815250601c0182805190602001908083836020831061088c5780518252601f19909201916020918201910161086d565b6040805162461bcd60e51b81526020600482015260186024820152600080516020612a26833981519152604482015290519081900360640190fd5b60008181526003602052604090205460ff1615610a2c576040805162461bcd60e51b8152602060048201526016602482015275151e081dd85cc8185b1c9958591e481a185b991b195960521b604482015290519081900360640190fd5b600385015160015461ffff630100000090910481169082161115610a8e576040805162461bcd60e51b815260206004820152601460248201527324b73b30b634b21032b837b1b410373ab6b132b960611b604482015290519081900360640190fd5b60006041865181610a9b57fe5b049050610aa7826113c3565b61ffff16811015610af7576040805162461bcd60e51b81526020600482015260156024820152744e6f7420656e6f756768207369676e61747572657360581b604482015290519081900360640190fd5b6060610b02836119cd565b905060008080805b85811015610c695760006041820290508060208d01015194508060408d01015193508060608d01015160001a9250600060018a85888860405160008152602001604052604051808581526020018460ff1660ff1681526020018381526020018281526020019450505050506020604051602081039080840390855afa158015610b97573d6000803e3d6000fd5b5050604051601f1901519150600090505b8751811015610c0c57816001600160a01b0316888281518110610bc757fe5b60200260200101516001600160a01b03161415610c0457878181518110610bea57fe5b6020026020010160006001600160a01b0316815250610c0c565b600101610ba8565b8751811415610c5e576040805162461bcd60e51b81526020600482015260196024820152784e6f7420612076616c696461746f72207369676e617475726560381b604482015290519081900360640190fd5b505050600101610b0a565b50959a94995093975050505050505050565b600080610c8884846107c8565b6000828152600360205260408120805460ff1916600117905586519294509092509085908290610cb457fe5b016020015160f81c600b811115610cc757fe5b9050600081600b811115610cd757fe5b1480610cee5750600a81600b811115610cec57fe5b145b15610d4a5760015461ffff83811663010000009092041614610d45576040805162461bcd60e51b81526020600482015260176024820152600080516020612a86833981519152604482015290519081900360640190fd5b610e00565b600b81600b811115610d5857fe5b1415610db05760015461ffff61010090910481169083161115610d45576040805162461bcd60e51b81526020600482015260176024820152600080516020612a86833981519152604482015290519081900360640190fd5b60015461ffff8381166101009092041614610e00576040805162461bcd60e51b81526020600482015260176024820152600080516020612a86833981519152604482015290519081900360640190fd5b600081600b811115610e0e57fe5b1415610e79578451604314610e58576040805162461bcd60e51b81526020600482015260186024820152600080516020612a26833981519152604482015290519081900360640190fd5b600080610e6487611a3c565b91509150610e728282611a4b565b5050611342565b600181600b811115610e8757fe5b1415610ede578451600314610ed1576040805162461bcd60e51b81526020600482015260186024820152600080516020612a26833981519152604482015290519081900360640190fd5b610ed9611bed565b611342565b600281600b811115610eec57fe5b1415610f3e578451600314610f36576040805162461bcd60e51b81526020600482015260186024820152600080516020612a26833981519152604482015290519081900360640190fd5b610ed9611d29565b600381600b811115610f4c57fe5b1415610f9e578451600314610f96576040805162461bcd60e51b81526020600482015260186024820152600080516020612a26833981519152604482015290519081900360640190fd5b610ed9611dbf565b600481600b811115610fac57fe5b1415611012578451602014610ff6576040805162461bcd60e51b81526020600482015260186024820152600080516020612a26833981519152604482015290519081900360640190fd5b60006110018661202c565b905061100c81612033565b50611342565b600581600b81111561102057fe5b141561108057845160201461106a576040805162461bcd60e51b81526020600482015260186024820152600080516020612a26833981519152604482015290519081900360640190fd5b60006110758661202c565b905061100c81612124565b600681600b81111561108e57fe5b14156110ee5784516020146110d8576040805162461bcd60e51b81526020600482015260186024820152600080516020612a26833981519152604482015290519081900360640190fd5b60006110e386612339565b905061100c81612340565b600781600b8111156110fc57fe5b141561115c578451602014611146576040805162461bcd60e51b81526020600482015260186024820152600080516020612a26833981519152604482015290519081900360640190fd5b600061115186612339565b905061100c81612423565b600881600b81111561116a57fe5b14156111ca5784516020146111b4576040805162461bcd60e51b81526020600482015260186024820152600080516020612a26833981519152604482015290519081900360640190fd5b60006111bf86612501565b905061100c8161250b565b600981600b8111156111d857fe5b141561122a578451600314611222576040805162461bcd60e51b81526020600482015260186024820152600080516020612a26833981519152604482015290519081900360640190fd5b610ed9612599565b600a81600b81111561123857fe5b141561128a578451600314611282576040805162461bcd60e51b81526020600482015260186024820152600080516020612a26833981519152604482015290519081900360640190fd5b610ed96126a1565b600b81600b81111561129857fe5b14156112fc5784516043146112e2576040805162461bcd60e51b81526020600482015260186024820152600080516020612a26833981519152604482015290519081900360640190fd5b6000806112ee87612745565b91509150610e728282612754565b6040805162461bcd60e51b81526020600482015260166024820152752ab735b737bbb71036b2b9b9b0b3b29030b1ba34b7b760511b604482015290519081900360640190fd5b5050505050565b60006060611355611770565b905060005b611362610790565b61ffff168110156113ae57836001600160a01b031682828151811061138357fe5b60200260200101516001600160a01b031614156113a65760010191506113b59050565b60010161135a565b5060009150505b919050565b60015460ff1681565b61ffff908116600090815260208190526040902060010154600160601b90041690565b600060015460ff1660048111156113f957fe5b14611440576040805162461bcd60e51b81526020600482015260126024820152714e6f7420696e20726561647920737461746560701b604482015290519081900360640190fd5b6001546001600160601b03600160281b90910481169082161080159061147457506402540be400816001600160601b031610155b801561149657506001546001600160601b03600160881b909104811690821611155b61149f57600080fd5b60006114a96116bc565b61ffff166114b56118ea565b430363ffffffff16816114c457fe5b600154604080519390920460e081901b6001600160e01b03191660208086019190915261010090920460f01b6001600160f01b0319166024850152825180850360060181526026909401835283519382019390932060009081526004909152205490915060ff166115d857600180546040805160e085901b6001600160e01b0319166020808301919091526101009384900460f01b6001600160f01b03191660248301528251808303600601815260269092018352815191810191909120600090815260048252828120805460ff191686179055845461ffff94900493909316835282905290208101805463ffffffff60401b19811663ffffffff600160401b928390048116909401909316029190911790555b600254604080516323b872dd60e01b81523360048201523060248201526001600160601b038516604482015290516001600160a01b03909216916323b872dd916064808201926020929091908290030181600087803b15801561163a57600080fd5b505af115801561164e573d6000803e3d6000fd5b505050506040513d602081101561166457600080fd5b507f31e108482b78b4d36dea7b82ed2a63a14bb1556d33d0e61a668f4282450970f2905082611691611983565b604080516001600160601b03909316835263ffffffff90911660208301528051918290030190a15050565b6001546000906107aa90610100900461ffff1661178a565b6001546000906107aa90610100900461ffff166117c5565b600060606116f861192b565b905060005b611705611902565b61ffff1681101561175157336001600160a01b031682828151811061172657fe5b60200260200101516001600160a01b031614156117495760010191506107ad9050565b6001016116fd565b50600091505090565b61ffff1660009081526020819052604090205490565b6001546060906107aa906301000000900461ffff166119cd565b61ffff908116600090815260208190526040902060010154600160701b90041690565b6001546000906107aa90610100900461ffff16611810565b61ffff16600090815260208190526040902060010154600160801b900460ff1690565b6002546001600160a01b031681565b61ffff1660009081526020819052604090206003015490565b61ffff1660009081526020819052604090206002015490565b61ffff1660009081526020819052604090206001015463ffffffff1690565b60006020819052908152604090206001810154600282015460039092015463ffffffff80831693600160201b8404821693600160401b810490921692600160601b830461ffff90811693600160701b810490911692600160801b90910460ff169188565b6001546000906107aa906301000000900461ffff166113c3565b600154610100900461ffff1681565b60036020526000908152604090205460ff1681565b6001546000906107aa90610100900461ffff16611829565b6001546000906107aa90610100900461ffff1661175a565b6001546301000000900461ffff1681565b6001546060906107aa90610100900461ffff166119cd565b6001546000906107aa906301000000900461ffff1661178a565b61ffff16600090815260208190526040902060010154600160401b900463ffffffff1690565b6001546000906107aa90610100900461ffff1661195d565b6001546000906107aa906301000000900461ffff166117c5565b6001546000906107aa90610100900461ffff166113c3565b61ffff811660009081526020818152604091829020805483518184028101840190945280845260609392830182828015611a3057602002820191906000526020600020905b81546001600160a01b03168152600190910190602001808311611a12575b50505050509050919050565b60238101516043909101519091565b600360015460ff166004811115611a5e57fe5b14611aa6576040805162461bcd60e51b81526020600482015260136024820152724e6f7420696e206b657967656e20737461746560681b604482015290519081900360640190fd5b6001805461ffff630100000091829004811660009081526020819052604080822060020187905584548490048316825280822060030186905584548490048316825290208301805463ffffffff60401b191663ffffffff60401b179055825491909104161415611b9b576001805460ff191680825563010000009081900461ffff908116600090815260208181526040918290208501805463ffffffff19164363ffffffff16179055845462ffff0019811661010095909104841685021794859055815187815290810186905281519390940490911692600080516020612a46833981519152929081900390910190a2611be9565b6001805460ff1916600417908190556040516301000000820461ffff90811692610100900416907fb54ecb66a176f6f9932a576abe0b1671de59cf93398c93922abbcdedb4daa9ae90600090a35b5050565b600460015460ff166004811115611c0057fe5b14611c50576040805162461bcd60e51b815260206004820152601b60248201527a4e6f7420696e2066756e6473207472616e7366657220737461746560281b604482015290519081900360640190fd5b600154610100900461ffff16611c975760405162461bcd60e51b81526004018080602001828103825260288152602001806129fe6028913960400191505060405180910390fd5b6001805460ff191680825563010000009081900461ffff90811660009081526020819052604090208301805463ffffffff19164363ffffffff16179055825462ffff0019811661010093909104821683021792839055910416600080516020612a46833981519152611d076117ad565b611d0f6107b0565b6040805192835260208301919091528051918290030190a2565b6001805460ff166004811115611d3b57fe5b14611d8a576040805162461bcd60e51b815260206004820152601a6024820152794e6f7420696e20636c6f73696e672065706f636820737461746560301b604482015290519081900360640190fd5b60018054600260ff19909116179081905560405161010090910461ffff16906000805160206129be83398151915290600090a2565b600060015460ff166004811115611dd257fe5b14611e19576040805162461bcd60e51b81526020600482015260126024820152714e6f7420696e20726561647920737461746560701b604482015290519081900360640190fd5b60018054610100900461ffff90811660009081526020819052604090208201805463ffffffff60201b1916600160201b4363ffffffff1602179055815464ffff0000001981166301000000918290048316840190921602179055611e7b6119b5565b600180546301000000900461ffff9081166000908152602081905260409020909101805461ffff60601b1916600160601b9390921692909202179055611ebf61192b565b6001546301000000900461ffff166000908152602081815260409091208251611eee93919291909101906128f6565b50611ef76116bc565b600180546301000000900461ffff9081166000908152602081905260409020909101805461ffff60701b1916600160701b9390921692909202179055611f3b6116d4565b6001805461ffff6301000000909104166000908152602081905260409020018054911515600160801b0260ff60801b19909216919091179055611f7c6116d4565b15611fe0576001805460ff191681179055604051600080516020612a6683398151915290600090a160015460405161010090910461ffff16907fe143ea1b9fab2f5402f146a5618fb1cd40b4b03d37a0b98d3b62a706affbcc7290600090a261202a565b6001805460ff19166002179055604051600080516020612a6683398151915290600090a160015460405161010090910461ffff16906000805160206129be83398151915290600090a25b565b6017015190565b600260015460ff16600481111561204657fe5b14612086576040805162461bcd60e51b815260206004820152601360248201526000805160206129de833981519152604482015290519081900360640190fd5b61208f81611349565b61ffff16156120db576040805162461bcd60e51b815260206004820152601360248201527220b63932b0b23c9030903b30b634b230ba37b960691b604482015290519081900360640190fd5b600180546301000000900461ffff16600090815260208181526040822080549384018155825290200180546001600160a01b0319166001600160a01b0392909216919091179055565b600260015460ff16600481111561213757fe5b14612177576040805162461bcd60e51b815260206004820152601360248201526000805160206129de833981519152604482015290519081900360640190fd5b61218081611349565b61ffff166121cf576040805162461bcd60e51b815260206004820152601760248201527620b63932b0b23c903737ba1030903b30b634b230ba37b960491b604482015290519081900360640190fd5b600060016121db610790565b03905060005b8161ffff168110156122c2576001546301000000900461ffff16600090815260208190526040902080546001600160a01b03851691908390811061222157fe5b6000918252602090912001546001600160a01b031614156122ba57612244611770565b8261ffff168151811061225357fe5b6020908102919091018101516001546301000000900461ffff16600090815291829052604090912080548390811061228757fe5b9060005260206000200160006101000a8154816001600160a01b0302191690836001600160a01b031602179055506122c2565b6001016121e1565b5060015461ffff6301000000909104811660009081526020819052604090208054909183169081106122f057fe5b6000918252602080832090910180546001600160a01b031916905560015461ffff63010000009091041682528190526040902080549061233490600019830161295b565b505050565b6005015190565b600260015460ff16600481111561235357fe5b14612393576040805162461bcd60e51b815260206004820152601360248201526000805160206129de833981519152604482015290519081900360640190fd5b60008161ffff16116123e6576040805162461bcd60e51b8152602060048201526017602482015276496e76616c6964207468726573686f6c642076616c756560481b604482015290519081900360640190fd5b6001805461ffff630100000090910481166000908152602081905260409020909101805491909216600160601b0261ffff60601b19909116179055565b600260015460ff16600481111561243657fe5b14612476576040805162461bcd60e51b815260206004820152601360248201526000805160206129de833981519152604482015290519081900360640190fd5b60008161ffff16116124c4576040805162461bcd60e51b8152602060048201526012602482015271496e76616c69642072616e67652073697a6560701b604482015290519081900360640190fd5b6001805461ffff630100000090910481166000908152602081905260409020909101805491909216600160701b0261ffff60701b19909116179055565b6004015160011690565b600260015460ff16600481111561251e57fe5b1461255e576040805162461bcd60e51b815260206004820152601360248201526000805160206129de833981519152604482015290519081900360640190fd5b6001805461ffff6301000000909104166000908152602081905260409020018054911515600160801b0260ff60801b19909216919091179055565b600260015460ff1660048111156125ac57fe5b146125ec576040805162461bcd60e51b815260206004820152601360248201526000805160206129de833981519152604482015290519081900360640190fd5b6125f4610790565b61ffff166126006118ac565b61ffff161115612652576040805162461bcd60e51b815260206004820152601860248201527724b73b30b634b2103a343932b9b437b63210373ab6b132b960411b604482015290519081900360640190fd5b6001805460ff1916600317908190556040516301000000820461ffff90811692610100900416907ffb8e00e9d7c99f4d3070324ad79f8db723e140c6cea87362c8f92500d59d9f1490600090a3565b600360015460ff1660048111156126b457fe5b146126fc576040805162461bcd60e51b81526020600482015260136024820152724e6f7420696e206b657967656e20737461746560681b604482015290519081900360640190fd5b60018054600260ff199091161790819055604051630100000090910461ffff16907feb3dfac264ae50dc3d10ccdd0681a7d67ace6c32c31a924bb66884a5483bac4e90600090a2565b60378101516043909101519091565b600254604080516370a0823160e01b815230600482015290516001600160601b038416926001600160a01b0316916370a08231916024808301926020929190829003018186803b1580156127a757600080fd5b505afa1580156127bb573d6000803e3d6000fd5b505050506040513d60208110156127d157600080fd5b505110612868576002546040805163a9059cbb60e01b81526001600160a01b0385811660048301526001600160601b03851660248301529151919092169163a9059cbb9160448083019260209291908290030181600087803b15801561283657600080fd5b505af115801561284a573d6000803e3d6000fd5b505050506040513d602081101561286057600080fd5b50611be99050565b6002546040805163095ea7b360e01b81526001600160a01b0385811660048301526001600160601b03851660248301529151919092169163095ea7b39160448083019260209291908290030181600087803b1580156128c657600080fd5b505af11580156128da573d6000803e3d6000fd5b505050506040513d60208110156128f057600080fd5b50505050565b82805482825590600052602060002090810192821561294b579160200282015b8281111561294b57825182546001600160a01b0319166001600160a01b03909116178255602090920191600190910190612916565b5061295792915061297f565b5090565b815481835581811115612334576000838152602090206123349181019083016129a3565b6107ad91905b808211156129575780546001600160a01b0319168155600101612985565b6107ad91905b8082111561295757600081556001016129a956feea8fefdb9a5231578b5ca2511ea50329b34ea30f3f8912343d34118572a25b6e4e6f7420696e20766f74696e672073746174650000000000000000000000000046697273742065706f636820646f6573206e6f74206e6565642066756e6473207472616e73666572496e636f7272656374206d657373616765206c656e6774680000000000000000fcae04201d08bba7fae85b1facd3e4dfea5aa6f38c3a6b3101e8fb323ebdda82040709db3bd52c05ad5f79015b1cff2eb1d5566d788a4a0b514d1fb8a2c0b83e496e636f7272656374206d6573736167652065706f6368000000000000000000a265627a7a723058203d759ae2a0c23ff19b5c3a99deeb2fe6186bc87dcc7765dad0388cd51de42d6064736f6c63430005090032",
  "source": "pragma solidity ^0.5.0;\n\nimport './openzeppelin-solidity/contracts/token/ERC20/IERC20.sol';\nimport \"./MessageHandler.sol\";\n\ncontract Bridge is MessageHandler {\n    event ExchangeRequest(uint96 value, uint32 nonce);\n\n    mapping(bytes32 => bool) usedExchangeRanges;\n\n    constructor(\n        uint16 threshold,\n        address[] memory validators,\n        address _tokenContract,\n        uint96[2] memory limits,\n        uint16 rangeSize,\n        bool closeEpoch\n    ) public {\n        require(validators.length > 0);\n        require(threshold <= validators.length);\n\n        tokenContract = IERC20(_tokenContract);\n\n        epoch = 0;\n        status = Status.KEYGEN;\n        nextEpoch = 1;\n\n        states[nextEpoch] = State({\n            validators : validators,\n            threshold : threshold,\n            rangeSize : rangeSize,\n            startBlock : 0,\n            endBlock : UPPER_BOUND,\n            nonce : UPPER_BOUND,\n            x : 0,\n            y : 0,\n            closeEpoch : closeEpoch\n        });\n\n        minTxLimit = limits[0];\n        maxTxLimit = limits[1];\n\n        emit NewEpoch(0, 1);\n    }\n\n    function exchange(uint96 value) public ready {\n        require(value >= minTxLimit && value >= 10 ** 10 && value <= maxTxLimit);\n\n        uint32 txRange = (uint32(block.number) - getStartBlock()) / uint32(getRangeSize());\n        if (!usedExchangeRanges[keccak256(abi.encodePacked(txRange, epoch))]) {\n            usedExchangeRanges[keccak256(abi.encodePacked(txRange, epoch))] = true;\n            states[epoch].nonce++;\n        }\n\n        tokenContract.transferFrom(msg.sender, address(this), value);\n        emit ExchangeRequest(value, getNonce());\n    }\n}\n",
  "sourcePath": "/build/contracts/Bridge.sol",
  "compiler": {
    "name": "solc",
    "version": "0.5.9+commit.e560f70d.Emscripten.clang"
  },
  "schemaVersion": "3.2.4",
  "updatedAt": "2020-09-03T03:07:24.033Z",
  "networkType": "ethereum",
  "devdoc": {
    "methods": {}
  },
  "userdoc": {
    "methods": {}
  }
}